{
  "contractName": "Adoption",
  "abi": [
    {
      "constant": true,
      "inputs": [
        {
          "internalType": "uint256",
          "name": "",
          "type": "uint256"
        }
      ],
      "name": "adopters",
      "outputs": [
        {
          "internalType": "address",
          "name": "",
          "type": "address"
        }
      ],
      "payable": false,
      "stateMutability": "view",
      "type": "function"
    },
    {
      "constant": true,
      "inputs": [
        {
          "internalType": "uint256",
          "name": "",
          "type": "uint256"
        }
      ],
      "name": "adopterss",
      "outputs": [
        {
          "internalType": "address",
          "name": "",
          "type": "address"
        }
      ],
      "payable": false,
      "stateMutability": "view",
      "type": "function"
    },
    {
      "constant": false,
      "inputs": [
        {
          "internalType": "uint256",
          "name": "petId",
          "type": "uint256"
        }
      ],
      "name": "adopt",
      "outputs": [
        {
          "internalType": "uint256",
          "name": "",
          "type": "uint256"
        }
      ],
      "payable": false,
      "stateMutability": "nonpayable",
      "type": "function"
    },
    {
      "constant": false,
      "inputs": [
        {
          "internalType": "uint256",
          "name": "petId",
          "type": "uint256"
        }
      ],
      "name": "adopssst",
      "outputs": [
        {
          "internalType": "uint256",
          "name": "",
          "type": "uint256"
        }
      ],
      "payable": false,
      "stateMutability": "nonpayable",
      "type": "function"
    },
    {
      "constant": true,
      "inputs": [],
      "name": "getAdopters",
      "outputs": [
        {
          "internalType": "address[16]",
          "name": "",
          "type": "address[16]"
        }
      ],
      "payable": false,
      "stateMutability": "view",
      "type": "function"
    }
  ],
  "bytecode": "0x608060405234801561001057600080fd5b50610423806100206000396000f3fe608060405234801561001057600080fd5b50600436106100575760003560e01c80633de4eb171461005c57806343ae80d3146100a257806377c5193d146101105780638588b2c51461017e578063cc8a6884146101c0575b600080fd5b610064610202565b6040518082601060200280838360005b8381101561008f578082015181840152602081019050610074565b5050505090500191505060405180910390f35b6100ce600480360360208110156100b857600080fd5b8101908080359060200190929190505050610283565b604051808273ffffffffffffffffffffffffffffffffffffffff1673ffffffffffffffffffffffffffffffffffffffff16815260200191505060405180910390f35b61013c6004803603602081101561012657600080fd5b81019080803590602001909291905050506102b6565b604051808273ffffffffffffffffffffffffffffffffffffffff1673ffffffffffffffffffffffffffffffffffffffff16815260200191505060405180910390f35b6101aa6004803603602081101561019457600080fd5b81019080803590602001909291905050506102e9565b6040518082815260200191505060405180910390f35b6101ec600480360360208110156101d657600080fd5b810190808035906020019092919050505061035a565b6040518082815260200191505060405180910390f35b61020a6103cb565b6000601080602002604051908101604052809291908260108015610279576020028201915b8160009054906101000a900473ffffffffffffffffffffffffffffffffffffffff1673ffffffffffffffffffffffffffffffffffffffff168152602001906001019080831161022f575b5050505050905090565b6000816010811061029057fe5b016000915054906101000a900473ffffffffffffffffffffffffffffffffffffffff1681565b601081601081106102c357fe5b016000915054906101000a900473ffffffffffffffffffffffffffffffffffffffff1681565b60008082101580156102fc5750600f8211155b61030557600080fd5b336000836010811061031357fe5b0160006101000a81548173ffffffffffffffffffffffffffffffffffffffff021916908373ffffffffffffffffffffffffffffffffffffffff160217905550819050919050565b600080821015801561036d5750600f8211155b61037657600080fd5b336000836010811061038457fe5b0160006101000a81548173ffffffffffffffffffffffffffffffffffffffff021916908373ffffffffffffffffffffffffffffffffffffffff160217905550819050919050565b60405180610200016040528060109060208202803883398082019150509050509056fea265627a7a72315820d8f158f26917b8cc3516a5061b73684dda0c782846b9dbf57a2b1ae86764ea0264736f6c63430005100032",
  "source": "pragma solidity ^0.5.0;\r\n\r\ncontract Adoption {\r\n  address[16] public adopters; \r\n   address[16] public adopterss;  // Adopting a pet\r\n  function adopt(uint petId) public returns (uint) {\r\n    // check that petId is in range of our adopters array\r\n    require(petId >= 0 && petId <= 15);    // add the address who called this function to our adopter array\r\n    adopters[petId] = msg.sender;    // return the petId provided as a confirmation\r\n    return petId;\r\n  }  // Retrieving the adopters\r\n   function adopssst(uint petId) public returns (uint) {\r\n    // check that petId is in range of our adopters array\r\n    require(petId >= 0 && petId <= 15);    // add the address who called this function to our adopter array\r\n    adopters[petId] = msg.sender;    // return the petId provided as a confirmation\r\n    return petId;\r\n  }  // Retrieving the adopters\r\n  function getAdopters() public view returns (address[16] memory) {\r\n    return adopters;\r\n  }\r\n}",
  "sourcePath": "C:/Users/admin/test/contracts/Adoption.sol",
  "compiler": {
    "name": "solc",
    "version": "0.5.16+commit.9c3226ce.Emscripten.clang"
  },
  "schemaVersion": "3.3.4",
  "updatedAt": "2021-04-17T09:19:53.492Z",
  "devdoc": {
    "methods": {}
  },
  "userdoc": {
    "methods": {}
  }
}